{
  "contractName": "HelloWorld",
  "abi": [
    {
      "inputs": [],
      "stateMutability": "nonpayable",
      "type": "constructor"
    },
    {
      "inputs": [],
      "name": "MESSAGE_CONSTANT",
      "outputs": [
        {
          "internalType": "string",
          "name": "",
          "type": "string"
        }
      ],
      "stateMutability": "view",
      "type": "function"
    },
    {
      "inputs": [],
      "name": "OWNER",
      "outputs": [
        {
          "internalType": "address",
          "name": "",
          "type": "address"
        }
      ],
      "stateMutability": "view",
      "type": "function"
    },
    {
      "inputs": [],
      "name": "messageState",
      "outputs": [
        {
          "internalType": "string",
          "name": "",
          "type": "string"
        }
      ],
      "stateMutability": "view",
      "type": "function"
    },
    {
      "inputs": [],
      "name": "greetings",
      "outputs": [
        {
          "internalType": "string",
          "name": "",
          "type": "string"
        }
      ],
      "stateMutability": "pure",
      "type": "function"
    },
    {
      "inputs": [],
      "name": "getBlockNumber",
      "outputs": [
        {
          "internalType": "uint256",
          "name": "",
          "type": "uint256"
        }
      ],
      "stateMutability": "view",
      "type": "function"
    }
  ],
  "bytecode": "0x60e0604052601460a08190527f4f6c612073656d616e6120536f6c69646974792100000000000000000000000060c090815261003e9160009190610058565b5034801561004b57600080fd5b503360601b60805261012c565b828054610064906100f1565b90600052602060002090601f01602090048101928261008657600085556100cc565b82601f1061009f57805160ff19168380011785556100cc565b828001600101855582156100cc579182015b828111156100cc5782518255916020019190600101906100b1565b506100d89291506100dc565b5090565b5b808211156100d857600081556001016100dd565b60028104600182168061010557607f821691505b6020821081141561012657634e487b7160e01b600052602260045260246000fd5b50919050565b60805160601c6102a3610149600039600060b601526102a36000f3fe608060405234801561001057600080fd5b50600436106100575760003560e01c8063117803e31461005c57806342cbb15c1461007a578063799c36cf1461008f578063acb34ce8146100a4578063b831d1d7146100ac575b600080fd5b6100646100b4565b60405161007191906101c2565b60405180910390f35b6100826100d8565b6040516100719190610229565b6100976100dc565b60405161007191906101d6565b610097610106565b610097610134565b7f000000000000000000000000000000000000000000000000000000000000000081565b4390565b6040518060400160405280600e81526020016d4f6c6120636f6e7374616e74652160901b81525081565b6040805180820190915260148152734f6c612073656d616e6120536f6c69646974792160601b602082015290565b6000805461014190610232565b80601f016020809104026020016040519081016040528092919081815260200182805461016d90610232565b80156101ba5780601f1061018f576101008083540402835291602001916101ba565b820191906000526020600020905b81548152906001019060200180831161019d57829003601f168201915b505050505081565b6001600160a01b0391909116815260200190565b6000602080835283518082850152825b81811015610202578581018301518582016040015282016101e6565b818111156102135783604083870101525b50601f01601f1916929092016040019392505050565b90815260200190565b60028104600182168061024657607f821691505b6020821081141561026757634e487b7160e01b600052602260045260246000fd5b5091905056fea26469706673582212202d90ed6ed948686dacef6531b6258ded23e1f9365833cb065d33ab0dab83cac464736f6c63430008010033",
  "immutableReferences": {
    "10": [
      {
        "length": 32,
        "start": 182
      }
    ]
  },
  "source": "// SPDX-License-Identifier: MIT\r\npragma solidity ^0.8.1;\r\n\r\n/// @title A title that should describe the contract/interface\r\n/// @author The name of the author\r\n/// @notice Explain to an end user what this does\r\n/// @dev Explain to a developer any extra details\r\n\r\ncontract HelloWorld {\r\n    // Varivel de estado\r\n    string public messageState = \"Ola semana Solidity!\";\r\n\r\n    // Varivel constante\r\n    string public constant MESSAGE_CONSTANT = \"Ola constante!\";\r\n\r\n    // Varivel immutable\r\n    address public immutable OWNER;\r\n\r\n    constructor() {\r\n        OWNER = msg.sender;\r\n    }\r\n\r\n    function greetings() public pure returns (string memory) {\r\n        string memory internalmessage = \"Ola semana Solidity!\";\r\n        return internalmessage;\r\n    }\r\n\r\n    function getBlockNumber() public view returns (uint) {\r\n        return block.number;\r\n    }\r\n}\r\n",
  "sourcePath": "C:\\Users\\STI-GOV\\Documents\\GitHub\\loteria-descentralizada-em-solidity\\contracts\\HelloWorld.sol",
  "compiler": {
    "name": "solc",
    "version": "0.8.1+commit.df193b15.Emscripten.clang"
  },
  "schemaVersion": "3.4.16",
  "updatedAt": "2023-09-16T18:47:56.596Z",
  "devdoc": {
    "author": "The name of the author",
    "details": "Explain to a developer any extra details",
    "kind": "dev",
    "methods": {},
    "title": "A title that should describe the contract/interface",
    "version": 1
  },
  "userdoc": {
    "kind": "user",
    "methods": {},
    "notice": "Explain to an end user what this does",
    "version": 1
  }
}